:100000004DC067C0D4C165C064C063C062C061C078
:1000100060C05FC05EC05DC05CC05BC05AC009020A
:1000200022000101008032090400000103010100E7
:100030000921010100012219000705810308000AB6
:100040001201100100000008C016DB2700010102A8
:100050000001100344006900670069004B0065005F
:1000600079001C0364006900670069007300740074
:1000700075006D0070002E0063006F006D000403BA
:100080000904050C0901A101850119002A3C02158A
:1000900000263C02950175108100C00011241FBE8E
:1000A000CFE5D2E0DEBFCDBF10E0A0E6B0E0E0EFEC
:1000B000F7E002C005900D92A636B107D9F720E00F
:1000C000A6E6B0E001C01D92A13AB207E1F730D335
:1000D0008DC396CFCF93C62F2091760024FF07C003
:1000E0003091770028E823272093770003C02AE582
:1000F000209376002C2FFC01A8E7B0E081918D932E
:1001000021501216DCF36C2F88E790E039D1CC5FD8
:10011000C0937600CF910895CF93DF9380918700AD
:10012000835087FDA8C0909183009D3209F0A1C043
:10013000883009F09EC080918400CCE0D0E0C81BDC
:10014000D109C557DF4F83EC80936B008AE580931C
:100150006100109267008881807619F0CE0185D207
:100160007FC09A81109274008981811106C010921B
:10017000750024E730E082E06FC0853019F4909379
:10018000880067C0863009F04EC08B81813041F411
:1001900080E490E0909386008093850082E13FC0E8
:1001A000823041F48EE190E0909386008093850048
:1001B00082E235C08330F1F4911108C08EE790E0FF
:1001C000909386008093850084E029C0913041F4AB
:1001D00082E690E090938600809385008CE11FC0BA
:1001E0009230E1F482E590E0909386008093850060
:1001F00080E115C0813241F480E390E09093860065
:100200008093850089E00BC0823241F482E890E05F
:10021000909386008093850089E101C080E090E49E
:10022000909367001DC0883069F0893019F490936D
:100230008A000FC08A3049F08B3059F48BE48093E8
:10024000770007C02AE830E002C024E730E081E010
:1002500003C024E730E080E03093860020938500DF
:100260009F81911104C09E81981708F4892F809373
:100270006000109287008091610084FF46C08091E9
:1002800060008F3F09F441C0C82F893008F0C8E0F2
:100290008C1B8093600090916B0088E88927809385
:1002A0006B00CC2331F14091850050918600809104
:1002B000670086FF0AC0ACE6B0E0FA019C2F84918B
:1002C0008D9331969150D9F708C0DA01ECE6F0E051
:1002D0009C2F8D9181939150E1F72FEF2C0F30E0FF
:1002E0002F5F3F4FCA01820F931F90938600809328
:1002F00085006C2F8CE690E043D0CC5FCC3019F0B9
:100300008FEF80936000C093610084E196B3987191
:1003100031F48150D9F71092880010928200C1E028
:100320008111C0E090916600C91739F0882319F057
:10033000F894BDD17894C0936600DF91CF91089571
:10034000AC9A8BB780628BBFE6E7F0E08BE48183E9
:100350008AE580830895A82FB92F80E090E041E0DE
:1003600050EA609530E009C02D91822797958795D6
:1003700010F084279527305EC8F36F5FA8F30895C7
:10038000EADF8D939D930895A6E088279927AA9583
:1003900069F00197E1F3B399FCCFB39BFECF81E005
:1003A0009927A6B3019611F0A871D9F70895CF93B4
:1003B000CFB7CF93C395B39BE9F7B39B0BC0B39B68
:1003C00009C0B39B07C0B39B05C0B39B03C0B39BDD
:1003D00001C0D5C00F92DF93C0918400DD27C557BF
:1003E000DF4F012EB39B03C0DF910F90E6CF2F9319
:1003F0000F931F934F932FEF4F6F06B303FB20F91B
:100400005F933F9350E03BE065C016B3012650294F
:1004100053FDC89556B3012703FB25F92F7306B387
:10042000B1F05027102713FB26F906B22230F0F066
:1004300000C016B3012703FB27F90126502906B295
:100440002430E8F54F77206816B30000F6CF502728
:100450004F7D206206B2102F000000C006B30026B8
:100460005029102713FB26F906B2E2CF4F7B06B3C3
:10047000206400C0DACF01265029187106B269F154
:100480004E7F2160012F16B328C0002650294D7FD2
:1004900006B22260102F29C0012650294B7F06B2D8
:1004A0002460012F2DC016B301265029477F2860F4
:1004B000000006B22EC04F7E06B3206130C0422736
:1004C00006B3499300265029102706B24FEF13FBBD
:1004D00020F9297F16B379F2187159F101265029B4
:1004E00006B2012703FB21F9237F06B371F2002630
:1004F00050293150D0F006B2102713FB22F9277E85
:1005000016B351F201265029012703FB06B223F945
:100510002F7C49F2000006B3102713FB24F90026B4
:10052000502906B22F7939F270CF10E21ABF002796
:1005300019C03B503195C31BD04010E21ABF08814F
:10054000033C09F10B34F9F0209182001981110F5D
:100550001213EDCF4A81441F093651F10D3211F0CB
:10056000013E29F7009389003F915F914F911F91C0
:100570000F912F91DF910F90CAB7C5FD1BCFCF917F
:10058000CFBFCF91189520918900222369F3109154
:100590008700112379F534307AF130938700209366
:1005A0008300109184003BE0311B3093840024C011
:1005B000009187000130F4F40AE54F7049F430915E
:1005C000610034FD1AC000936100CBE6D0E019C091
:1005D0003091760034FD11C000937600C7E7D0E07B
:1005E00010C0052710E000C021C0052710E0C89505
:1005F00008BB14C03AE501C032ED032EC0E0D0E0E4
:1006000032E017B31861C39A08B317BB58E120E86A
:100610004FEF20FF052708BB279517951C3F28F7AC
:1006200000004552B0F720FF0527279508BB179516
:100630001C3FB8F629913A9561F7077E1091880022
:10064000110F08BBC250D04011F01093820010E28D
:100650001ABF086017B3177E402F477E54E05A95A3
:10066000F1F708BB17BB48BB7FCFFC0182E690E0E7
:100670009093860080938500808180768032A9F4F3
:100680008181813081F0823041F48AE690E090935C
:1006900086008093850081E008958A3031F483815B
:1006A00080936A0002C083E0089580E00895DF929D
:1006B000EF92FF920F931F93CF93DF9308E010E028
:1006C000C0E0D0E8DD2EDC0ED1BE5EDE7C0184E32E
:1006D000E81689E0F8060CF4CD2DD69501501109E5
:1006E00089F78FEF8C0F81BF0C2F10E00F5F1F4F2A
:1006F00081B790E0081719078CF046DE84539940C3
:1007000097FF03C09195819591098E159F0514F46B
:10071000C1B77C0181B78F5F81BFEACFC1BFDF91D5
:10072000CF911F910F91FF90EF90DF900895BFCF71
:1007300007DEBB9A80E0815041F0A895ECE1F0E142
:100740003197F1F700C00000F6CFBB989FE088E139
:100750000FB6F894A89581BD0FBE91BD88B3856290
:1007600088BB7894C2EED1E01AEE09EEA895D4DCED
:1007700010926900B59910C0B29B03C00093690044
:1007800002C010936900B59920C080E990E50197F7
:10079000F1F700C00000F7CF8091680081110BC015
:1007A000B09913C0C0936900D0936800E0E9F0E508
:1007B0003197F1F708C0B09B08C01092680080E93B
:1007C00090E50197F1F700C000008091760084FF6A
:1007D000CDCF8091690090916300981739F2809392
:1007E000630063E082E690E075DCC0CFF894FFCF51
:0607F000FF5A01000000A9
:00000001FF
