:1000000042C0ADC15BC05AC059C058C057C056C0ED
:1000100055C054C053C052C051C050C04FC04EC054
:100020004DC0B9C54BC04AC049C048C047C046C012
:1000300045C044C0040309041C037700770077001F
:100040002E00660069007300630068006C002E00DB
:10005000640065000E035500530042006100730008
:10006000700012011001FF000008C016DC05040139
:1000700001020001090212000101008019090400B7
:1000800000000000000011241FBECFEFD4E0DEBF4F
:10009000CDBF11E0A0E0B1E0E4E0F3E102C00590E3
:1000A0000D92A230B107D9F712E0A2E0B1E001C091
:1000B0001D92AE34B107E1F78CD522C9A1CFE9E694
:1000C000F0E0808183608083E89A08951F93CF9346
:1000D000DF9360912A02635067FD13C0809127026D
:1000E000CCE0D0E0C81BD109C25DDD4F8091260273
:1000F0008D3209F462C08091020187FD84C01092A4
:100100002A028091000184FF4AC0609101016F3F83
:1001100009F445C0693070F1685060930101809125
:100120001A0298E8892780931A0268E080910201F8
:1001300087FD8BC0209128023091290286FF6DC077
:10014000ABE1B2E080E090E0F901E80FF91FE49143
:10015000ED9301966817C1F76150862F90E06F5FAD
:100160000196820F931F9093290280932802162FE5
:100170001C5F0BC01092010180911A0298E8892738
:1001800080931A02662391F614E08BE192E0E3D0AB
:100190001C3019F08FEF809301011093000194E15E
:1001A00083B1837031F49150D9F710922B021092E1
:1001B0002502DF91CF911F910895683009F09FCFFC
:1001C00083EC80931A028AE5809300011092020169
:1001D0008881807659F59A8110922302898188233B
:1001E00009F043C01092240222E083E292E090934F
:1001F0002902809328028F81882319F49E81921707
:1002000008F1922F1FC0CE010FD58F3F51F18823E7
:1002100009F475CF1092010172CFD901962FEBE14D
:10022000F2E08D9181939150E1F796CFCE0144D6C3
:10023000282F8F3F01F7888187FD25C09FEF80E839
:1002400080930201909301015ACF8BE192E0C2D5D5
:10025000682F893008F453C08FEF809301011EE1AD
:100260009CCF8EE1809300014ACF853071F08630BB
:1002700091F0883031F1893061F18A3031F120E03C
:1002800083E292E0B4CF9E81DACF90932B0220E0FC
:1002900083E292E0ACCF8B81813049F18230F9F07A
:1002A000833029F020E080E480930201A4CF9923D9
:1002B00049F584E390E0909329028093280224E09A
:1002C000F2CF21E08DE292E092CF21E083E292E052
:1002D0008ECF90932D0220E083E292E088CF84E7D6
:1002E00090E0909329028093280222E1DCCF82E6FD
:1002F00090E0909329028093280222E1D4CF182F16
:100300001C5F43CF913051F0923061F684E590E06C
:1003100090932902809328022EE0C5CF88E390E0D5
:1003200090932902809328022CE1BDCFA82FB92FEA
:1003300080E090E041E050EA609530E009C02D9106
:1003400082279795879510F084279527305EC8F30C
:100350006F5FA8F30895EADF8D939D930895CF937F
:10036000CFB7CF93C395189BE9F7189B09C0189B8B
:1003700007C0189B05C0189B03C0189B01C0A1C0F3
:10038000DF93C0912702DD27C25DDD4F189B02C0BD
:10039000DF91EBCF2F930F931F9303B12FEF00FB50
:1003A00020F94F933F9313B14FEF012700FB21F941
:1003B0003BE031C04E7F012F13B1216028C0102FC8
:1003C0004D7F2260000003B129C04B7F2460012FC4
:1003D000000013B12BC013B1477F28602AC04F7EA5
:1003E00003B120612CC04F7D13B120622FC04F7B21
:1003F00003B1206432C0422703B149934FEF00009C
:10040000102710FB20F913B11370C9F1297F91F265
:10041000012700FB21F903B1237F89F2315058F104
:10042000102710FB22F913B1277E79F2012700FB78
:1004300023F92F7C81F203B1102710FB24F92F79C7
:1004400071F200C013B1012700FB25F92F7359F297
:1004500000C003B1102710FB26F9223040F200C083
:1004600013B1012700FB27F9243028F64F772068C5
:1004700013B10000F9CF11E01CBB002717C03B509F
:100480003195C31BD04011E01CBB0881033CE9F04F
:100490000B34D9F0209125021981110F1213EDCFE1
:1004A000093641F10D3211F0013E39F700932C026B
:1004B0003F914F911F910F912F91DF91CCB3C0FDD0
:1004C00051CFCF91CFBFCF91189520912C022223ED
:1004D00079F310912A02112311F5343012F130937F
:1004E0002A0220932602109127023BE0311B309311
:1004F000270217C000912A0201308CF40AE53091DE
:10050000000134FD10C000930001CAE1D2E00FC029
:100510002795A8F45150A9F4220F0000F9CF4AE51D
:1005200003C042ED01C0432FC4E1D0E032E014B17A
:100530001360289A14B905B120E413E05F930127F2
:1005400056E005B9279520F4515021F4220FF9CF38
:10055000012756E000003B5A05B9D0F2279528F450
:10056000515029F4220F0000F9CF012756E02795BA
:1005700005B920F4515021F4220FF9CF012756E09C
:100580002991332305B921F60C7F10912B02110F0D
:10059000C651D04005B911F01093250211E01CBBE3
:1005A000016014B11C7F402F4C7F5F9100C000C0E0
:1005B00005B914B945B97CCF809147028CBD8091B3
:1005C00044028DBD0895282F8823A1F0883008F0BB
:1005D00042C08CE893E09093460280934502243019
:1005E00019F12530B8F0263099F1263068F127301E
:1005F000F9F008958DEA93E09093460280934502C6
:1006000081E08093490282E58093470281E08093F4
:10061000440208952230A1F0233070F4213049F7CC
:1006200080EC80934902089588E1809349020895FF
:1006300083E080934902089580E3809349020895FE
:1006400080E68093490208958CE0809349020895E2
:100650002093490208958DEA93E090934602809397
:1006600045021092440281E080934902293041F012
:100670002A3050F4283039F683E5809347020895F4
:1006800082E58093470208952B3029F02C3009F041
:10069000BACF8093440281E580934702089526B53E
:1006A0009091490286B5821B8917E0F3089584B1C1
:1006B0008C6284B92A982D9896B52091490286B506
:1006C000891B8217E0F32A9A96B586B5891B821793
:1006D000E0F32A9880914502909146028D5A93400A
:1006E00019F0109248020895809147028CBD8091C4
:1006F00044028DBD10924802089584B1837D84B96F
:1007000085B1837D85B91CBC089580E184B984E0FE
:1007100085B980EC8CBD0895582F2091490240E0A6
:1007200030E057FD16C02B98440F1C994F5F2D9A4F
:1007300096B586B5891B8217E0F32D9896B586B5D8
:10074000891B8217E0F33F5F383029F0550F57FFC0
:10075000EACF2B9AE9CF842F08958EBD0DB407FE02
:10076000FDCF8EB508950F931F930FE1E0914502E1
:10077000F09146028CEA0995E0914502F09146021B
:1007800083E50995E0914502F091460280E00995E4
:10079000182FE0914502F091460280E0099513354B
:1007A00061F11CBC26B59091490286B5821B891760
:1007B000E0F32A9A26B586B5821B8917E0F32A98BA
:1007C00026B586B5821B8917E0F3E0914502F091CA
:1007D000460283E0ED3AF80721F0002351F0015082
:1007E000C9CF809147028CBD809144028DBD00230A
:1007F000B1F781E01F910F91089580E01F910F9153
:1008000008959B01AC0181E1569547953795279551
:100810008A95D1F7809148028217D9F02093480237
:10082000E0914502F09146028DE40995E091450280
:10083000F091460280E00995E0914502F091460270
:10084000809148020995E0914502F091460280E0CE
:1008500009950895EF92FF920F931F937B018C01EE
:10086000D0DF8E2D8170880F880F880FE0914502B0
:10087000F091460280620995D801C70129E0B6953A
:10088000A795979587952A95D1F7E0914502F09124
:100890004602099516950795F794E794E09145026D
:1008A000F09146028E2D0995E0914502F0914602A5
:1008B00080E009951F910F91FF90EF9008950F939D
:1008C0001F938C01E0914502F091460280EA099560
:1008D000E0914502F0914602812F0995E091450291
:1008E000F0914602802F0995E0914502F091460271
:1008F00080E009951F910F910895FF920F931F9328
:100900008C01F62EE0914502F091460280EC0995AB
:10091000E0914502F0914602812F0995E091450250
:10092000F0914602802F0995E0914502F091460230
:100930008F2D09958EE1B9D080E01F910F91FF9026
:100940000895CF92DF92EF92FF920F931F936B0166
:100950007C01142F56DFE0914502F09146028CE4B1
:100960000995D701C60149E0B695A7959795879552
:100970004A95D1F7E0914502F09146020995D701D9
:10098000C601B695A79597958795E0914502F09198
:1009900046020995E0914502F091460280E00995F2
:1009A0001F3FF1F016B50EE1C701B60153DF8F3FCF
:1009B00079F486B5811B8D33B8F316B50150A1F7D4
:1009C00081E01F910F91FF90EF90DF90CF900895FD
:1009D00080E01F910F91FF90EF90DF90CF900895EE
:1009E0008FE063D080E01F910F91FF90EF90DF9038
:1009F000CF900895CF92DF92EF92FF920F931F93C3
:100A00006B017C01042F122FFCDE8C2D8170880F6E
:100A1000880F880FE0914502F091460280640995A5
:100A2000D701C60169E0B695A795979587956A9510
:100A3000D1F7E0914502F09146020995D701C60130
:100A4000B695A79597958795E0914502F091460256
:100A50000995E0914502F0914602802F09951123F6
:100A6000C1F00F37F1F016B50EE1C701B601F2DEA5
:100A70008F3779F486B5811B8D33B8F316B50150E5
:100A8000A1F781E01F910F91FF90EF90DF90CF9041
:100A9000089580E01F910F91FF90EF90DF90CF902D
:100AA00008958FE002D080E0F5CF382F882349F0F9
:100AB00020E096B586B5891B8C33E0F32F5F2317B2
:100AC000C0F30895259A23982B9A50E217D05A958F
:100AD000E9F70895AC0188E605D0842F03D089E6B4
:100AE00001D0852F0FD028E030E0382780FB869595
:100AF00006D02A95D1F730FB02D000D06894239815
:100B00002B9A16F02B98239AE0914A02F0914B020F
:100B10003197F0F72D9AE3B1E3FBE0914A02F091AF
:100B20004B023197F0F72D98089520ECE7DF46F45B
:100B30002A95E1F780E02AE1E5DF2A95E9F7DECFA3
:100B400028E030E0DBDF869587F938272A95D1F752
:100B5000D5DF27F9322772F3D1DFD0CFDB01742F35
:100B6000B9DF84E2BFDFE1DF8D937A95D1F7089595
:100B7000DB01742FAFDF83EFB5DF8DE1B3DF84E6F8
:100B8000B1DF8D91AFDF82E7ADDFCFDF8078D9F7BE
:100B90007A9589F7089578941F920F920FB60F9265
:100BA00011248F939F93EF93FF93809109019EB53A
:100BB000E2E1F1E0E80FF11D90838F5F809309017E
:100BC000FF91EF919F918F910F900FBE0F901F900B
:100BD00018951F93CF93DF931BB815B81AB88FEFF2
:100BE00084B914B893E097B98EEF88B995BD67DAE8
:100BF000789412E0C0E0D0E869DA80910301873090
:100C0000D9F780914C0290914D02019790934D023B
:100C100080934C02892B81F788B1812788B9D093C2
:100C20004D02C0934C02E8CFFF920F931F93CF93D6
:100C3000DF93082F792FF62E40910301413069F0A0
:100C4000443059F0463009F492C01FEF812FDF91F4
:100C5000CF911F910F91FF900895FF2009F4B2C02A
:100C6000802F972F9C01E90110E053C0809116025C
:100C700090911702892B09F058C06091120270916F
:100C800013028091140290911502488121E0B2DE96
:100C90008091040190910501019790930501809343
:100CA0000401892BD9F4109203018091180281FF6D
:100CB0003AC08091190290E02091160230911702FB
:100CC0008217930781F16091120270911302809153
:100CD000140290911502488134DE11E080911202D5
:100CE00090911302A0911402B09115020196A11DDA
:100CF000B11D8093120290931302A0931402B0933B
:100D0000150221969E01201B2F1508F09FCF4091C0
:100D10000301413009F4AACF80911202909113028D
:100D20006881EBDDB5CF11E0D9CF609112027091EF
:100D300013028091140290911502488120E05ADE3E
:100D400080911902815080931902882309F0A0CF65
:100D50006091120270911302809114029091150219
:100D60004881EFDD809116028093190291CF809126
:100D7000120290911302602F4F2DFADE8091120221
:100D800090911302A0911402B09115028F0D911D44
:100D9000A11DB11D8093120290931302A09314021F
:100DA000B093150280910401909105018F1991096A
:100DB0009093050180930401892B21F41092030183
:100DC00011E044CF10E0812FDF91CF911F910F915F
:100DD000FF9008950F931F93CF93DF93082F792FE0
:100DE000162F40910301842F8250823050F04530FD
:100DF00009F446C01FEF812FDF91CF911F910F9112
:100E000008954530E9F1662399F1802F9C01E901AD
:100E100020C0809112029091130251DD888380914D
:100E2000120290911302A0911402B0911502019642
:100E3000A11DB11D8093120290931302A09314027E
:100E4000B093150221969E01201B211778F4409142
:100E500003014230F1F66091120270911302809109
:100E6000140290911502F6DC8883D9CF183018F659
:100E700010920301812FDF91CF911F910F9108955F
:100E80008091120290911302602F412F67DE8091B2
:100E9000120290911302A0911402B0911502810FD9
:100EA000911DA11DB11D8093120290931302A09376
:100EB0001402B09315029FCF0F931F93CF93DF932C
:100EC000EC018981813009F44DC0823009F4D5C02C
:100ED000833009F454C0843009F4A8C0873009F481
:100EE0007EC0853009F445C1863009F4F9C08830E8
:100EF00009F4C9C0893009F443C18A3009F453C1E7
:100F00008B3009F47EC18C3009F4A1C18D3009F415
:100F1000B5C18E3009F4B9C18F3009F04DC19B8144
:100F200080E02A8130E0822B932BAA2797FDA095A1
:100F3000BA2F8093120290931302A0931402B093DD
:100F400015029F8180E02E8130E0822B932B9093BD
:100F500005018093040185E0809303019FEF0AE07F
:100F600011E030C0329B38C0809106012CDB10921A
:100F7000070141989CDB90E00AE011E023C0E0917A
:100F80004502F09146028A8109950AE011E08093BA
:100F90000A01E0914502F09146028B810995809308
:100FA0000B01E0914502F09146028C8109958093F6
:100FB0000C01E0914502F09146028D8109958093E4
:100FC0000D0194E01093290200932802892FDF91EC
:100FD000CF911F910F91089585E0F5DAC8CF8091E8
:100FE0000701882391F49B8180E02A8130E0822BE5
:100FF000932BAA2797FDA095BA2F80931202909366
:101000001302A0931402B09315029F8180E02E81F9
:1010100030E0822B932B909305018093040183E0B1
:10102000809303019FEF0AE011E0CCCF809107018C
:10103000882391F49B8180E02A8130E0822B932BDE
:10104000AA2797FDA095BA2F8093120290931302BE
:10105000A0931402B09315029F8180E02E8130E0AE
:10106000822B932B909305018093040182E080935F
:1010700003019FEF0AE011E0A5CF3FDB419A90E02A
:101080000AE011E09FCF80910701882391F49B81B2
:1010900080E02A8130E0822B932BAA2797FDA09530
:1010A000BA2F8093120290931302A0931402B0936C
:1010B00015021092170210921602109218029F81C8
:1010C00080E02E8130E0822B932B9093050180935A
:1010D000040184E0809303019FEF0AE011E072CFE6
:1010E00080910701882391F49B8180E02A8130E080
:1010F000822B932BAA2797FDA095BA2F80931202DB
:1011000090931302A0931402B09315028C818093E4
:101110001602109217028D81282F2F70209318022B
:10112000482F50E0407F507042955295507F542791
:10113000407F54278091160290911702480F591F43
:10114000509317024093160220FF02C040931902E9
:101150009F8180E02E8130E0822B932B90930501BC
:101160008093040181E0809303019FEF0AE011E086
:1011700029CFF9DA0AE011E080930A0191E022CF49
:1011800081E0809307018A819B81AC81BD8180933E
:10119000120290931302A0931402B093150290E0F0
:1011A0000AE011E00FCF8A81809306010AE011E086
:1011B00010920A0191E006CF8031D1F59B8180E049
:1011C0002A8130E0822B932BAA2797FDA095BA2F76
:1011D0008093120290931302A0931402B09315020D
:1011E0009F8180E02E8130E0822B932B909305012C
:1011F0008093040186E0809303019FEF0AE011E0F1
:10120000E1CE9B8180E02A8130E0822B932B90936A
:101210004B0280934A022A9A229A83E046DC2A985B
:10122000419880E142DC4EDC90E00AE011E0CACE59
:101230008F3789F50AE011E081E080930A0110926E
:101240000B0110920C0110920D0194E0BBCE80ECCA
:1012500049DC80E047DC8AE028DC2A9A85E025DC4E
:101260002A9885E022DC84B1837D84B985B1837DB1
:1012700085B9419A90E00AE011E0A4CE56DC0AE07C
:1012800011E080930A0191E09DCE8A812BDC90E0F1
:101290000AE011E097CE803219F1823249F18132B1
:1012A00021F090E00AE011E08DCE2091080130910C
:1012B00009012317B1F30AE011E0D80190E0E22F11
:1012C000F0E0EE5EFE4F80818C932F5F209308014B
:1012D0009F5F321709F476CE1196983081F772CE5F
:1012E00014DA87E08093030190E00AE011E06ACE0F
:1012F000419A03DA1092030190E00AE011E062CE15
:04130000F894FFCF8F
:021304005AFF8E
:00000001FF
