:10000000DDC052C2F6C0F5C0F4C0F3C0F2C0F1C00A
:10001000F0C0EFC0EEC0EDC0ECC0EBC0EAC0E9C07C
:10002000E8C0E7C0E6C0040309041A0354006900ED
:100030006C006C00200048006100720062006100EA
:1000400075006D001A036900320063002D00740012
:1000500069006E0079002D007500730062001201C6
:100060001001FF000008030431C605010102000170
:1000700009021200010100800509040000000000CF
:1000800000006932632D74696E792D757362202DBD
:100090002028632920323030362062792054696C60
:1000A0006C204861726261756D0A006E6F74206920
:1000B0006E2061636B2073746174650A00777269E6
:1000C0007465206661696C65640A0064617461200E
:1000D0003D2025780A0065786365656473210A0010
:1000E00077726974652025642062797465732C20A9
:1000F0002564206578700A006E6F7420696E206137
:10010000636B2073746174650A0064617461203DDF
:100110002025780A0065786365656473210A00729A
:100120006561642025642062797465732C202564E0
:10013000206578700A0049324320726561643A2074
:1001400061646472657373206572726F72204020FF
:1001500025780A0069326320257320617420307885
:10016000253032782C206C656E203D2025640A00F5
:100170007265717565737420666F722064656C6159
:100180007920256475730A0053657475702025788D
:100190002025782025782025780A004932432064DC
:1001A0006576696365206174206164647265737348
:1001B00020307825780A000100FF8E0011241FBE30
:1001C000CFE5D4E0DEBFCDBF10E0A0E6B0E0E4EEC6
:1001D000F2E102C005900D92AA37B107D9F710E0FD
:1001E000AAE7B0E001C01D92A33BB107E1F775D5C6
:1001F00077C806CF85B7836085BF8BB780648BBF18
:1002000008950F931F93CF93DF936091930066231C
:1002100049F1635080919000C3EAD0E0C81BD10936
:1002200080918F008D3281F080917A0087FD12C01D
:100230008C2F9D2FC1D48F3F09F456C0882309F419
:1002400064C020E030E008C08AE580936100683037
:1002500009F484C020E030E830937A0020936000F5
:10026000109293008091610084FF27C0809160000C
:100270008F3F19F1682F893070F5861B80936000DD
:1002800080917A0080FF25C003EC8F5F80937A0015
:1002900087FD3EC0662381F184E890E016D4682F84
:1002A0007727162F693008F450C08FEF80936000D5
:1002B0009EE100938300909361009AE086B385707D
:1002C00009F0EDC09150D1F71092940010928E0079
:1002D000E6C00BE4DACF68E0861B80936000809173
:1002E0007A0080FFF6CFD0CF809360008EE18093BC
:1002F00061002FEF30E0B0CF60E084E890E045D2BD
:1003000094E08FEF80936000D4CF2FEF30E0A4CF44
:10031000209191003091920086FD3CC0462F4150C3
:100320004F3F69F0F32FE22F942FA4E8B0E08191C2
:100330008D939150E0F7240F311D2F5F3F4F309385
:100340009200209391007727ACCF84E890E01DD2F3
:10035000912F9C5F183008F0ACCFD3CF8881807686
:10036000B1F52CE830E010928C008981882311F5DA
:1003700010928D00309392002093910022E030E89B
:100380008F81882309F068CF8E81821708F064CFAF
:10039000282F62CF462F41504F3F89F2F32FE22F93
:1003A000942FA4E8B0E0C895802D8D93319691509C
:1003B000D0F7C1CF853099F08630E9F0883029F147
:1003C000893099F18A3051F120E030E8D9CF8C2F73
:1003D0009D2F88D2282F8F3F41F030E8D1CF8A81DE
:1003E0008093940020E030E8CBCF888187FF82CFD4
:1003F0002E8130E031CF8B81813091F1823039F123
:100400008330C9F020E030ECBBCF86E990E09093D8
:1004100092008093910021E030E8B2CF30939200B7
:100420002093910021E030E8ABCF8A818093960041
:1004300020E030E8A5CF8A818823D9F486E290E0D5
:10044000909392008093910024E030EC99CF80E764
:1004500090E0909392008093910022E130EC90CF55
:100460008EE590E0909392008093910022E130EC31
:1004700087CF813059F0823029F684E490E0909360
:100480009200809391002AE130EC7ACF8AE290E0EA
:1004900090939200809391002AE130EC71CFDF912C
:1004A000CF911F910F910895CF93CFB7CF93B09B6A
:1004B000FECFB09B09C0B09B07C0B09B05C0B09BEE
:1004C00003C0B09B01C09EC0DF93C0919000DD27A8
:1004D000C956DF4FB09B02C0DF91EBCF2F930F9334
:1004E0001F9306B32FEF00FB20F94F933F9316B3F2
:1004F0004FEF012700FB21F93BE031C04E7F012F78
:1005000016B3216028C0102F4D7F2260000006B373
:1005100029C04B7F2460012F000016B32BC016B3F7
:10052000477F28602AC04F7E06B320612CC04F7DD4
:1005300016B320622FC04F7B06B3206432C042271F
:1005400006B349934FEF0000102710FB20F916B3B4
:100550001570A9F1297F91F2012700FB21F906B35B
:10056000237F89F23150F0F1102710FB22F916B3E6
:10057000277E79F2012700FB23F92F7C81F206B355
:10058000102710FB24F92F7971F200C016B3012750
:1005900000FB25F92F7359F200C006B3102710FB9A
:1005A00026F9223040F200C016B3012700FB27F9DC
:1005B000243028F64F77206816B30000F9CF3B505F
:1005C0003195333010E41ABFB8F0C31BD040088116
:1005D000033C41F10B3431F11981412F1F772091F8
:1005E0008E00121731F4093691F10D3279F0013E87
:1005F00069F02227209395003F914F911F910F9111
:100600002F91DF91CF91CFBFCF9118950093950097
:100610003F914F911F910F912F91DF91CAB7C6FD66
:1006200046CFF0CF00919500002331F31091930055
:10063000112349F534304AF13093930000938F0031
:10064000109190003BE0311B309390001EC0009150
:1006500093000130C4F40AE53091610034FD17C005
:1006600000936100C3E8D0E016C0052710E008BB86
:100670001FC0052722C0052727C005272CC0052736
:1006800010E008BB33C04AE503C042ED01C0432F70
:10069000C4E1D0E032E017B31560C09A08B317BBCD
:1006A0005F9355E020E820FF052708BB27951795A5
:1006B0001C3FD8F620FF0527279508BB17951C3F40
:1006C000C0F620FF05272795179508BB1C3F98F615
:1006D00020FF0527279517951C3F08BB70F600C023
:1006E000499120FF052708BB279517951C3F38F631
:1006F00020FF0527279508BB17951C3F38F520FFDD
:1007000005272795179508BB1C3F10F520FF0527E7
:10071000279517951C3F08BBE8F4242F3A9519F646
:100720000A7F5F9108BB00C010919400C651D04071
:1007300011F010938E0010E41ABF016017B31A7FF6
:10074000402F4A7F08BB17BB48BB56CF0527D3CFE6
:100750000527D8CF0527DDCFA82FB92F8FEF9FEF23
:1007600041E050EA615070F02D9138E0722F782707
:1007700096958795269570FF02C0842795273A9510
:10078000A9F7F0CF809590950895E6DF8D939D931E
:100790000895CF93C82F8A3039F05D9BFECFCCB936
:1007A00080E090E0CF9108958DE0F3DFF6CFE09107
:1007B0006200F09163003197F1F7882359F0A59812
:1007C000AD9A9D9BFECF809164009091650001974A
:1007D000F1F70895A59AAD98F6CFA498AC9A08952C
:1007E000811103C0A49AAC980895F7CF80E0F8DF98
:1007F00081E0DDDFF2CF0F931F93CF93DF93082FBC
:1008000010E0C7E0D0E007C0E8DF81E0D0DF80E0A3
:10081000CEDF219760F098010C2E02C03595279508
:100820000A94E2F720FDF0CF80E0DADFEECFD5DFEB
:1008300081E0BDDFC3B380E0BADFC295C17081E063
:100840008C27DF91CF911F910F9108951F93CF9324
:10085000DF93182FC2DF80E0AADFD8E0C0E081E09C
:10086000A6DFCC0F9C99C16080E0A1DFD150B9F721
:1008700011110CC080E0B4DF81E099DF80E097DFE8
:10088000ACDF8C2FDF91CF911F910895A6DFF4CFBD
:100890000F931F93CF93DF93C0E0D0E00BE911E0FB
:1008A00005C0A4DF2196CF37D105B9F080E098DFED
:1008B00080E07DDF8C2F880F9EDF882391F3DF930C
:1008C000CF931F930F934DD20F900F900F900F90D7
:1008D0008DDF2196CF37D10549F7DF91CF911F9159
:1008E0000F9108951F93CF93DF93EC018BE790E076
:1008F00090939200809391008B811F928F938A81B5
:100900001F928F9389811F928F9388811F928F935B
:1009100088E891E09F938F9324D22DB73EB7265F4E
:100920003F4F0FB6F8943EBF0FBE2DBF8981823076
:1009300009F47EC090F4882309F46FC0813009F077
:100940005EC044E050E067EB71E08BE790E0F9D1E6
:1009500084E0DF91CF911F910895833009F454C052
:10096000883008F04CC04E815F812C813D818A81A6
:1009700080FF84C084E790E05F934F933F932F9371
:100980009F938F9384E591E09F938F93EAD11C818D
:10099000110F8A812DB73EB7285F3F4F0FB6F894ED
:1009A0003EBF0FBE2DBF80FD1160898180FD03C059
:1009B00014DF81E0FCDE80E013DF80E0F8DE812FD1
:1009C0001ADF882309F46BC081E080937F008E8159
:1009D0009F819093820080938100298120938000E1
:1009E00021FF03C0009709F456C021E0892B09F4C8
:1009F00020E0822F8195DF91CF911F91089580E0B3
:100A0000DF91CF911F91089580917F0080937B00AB
:100A100081E0DF91CF911F9108958A8180937B00BF
:100A20008B8180937C0082E0DF91CF911F910895AC
:100A30008A819B819093650080936400009709F5FB
:100A400081E090E0909365008093640081E090E005
:100A5000909363008093620081E090E09F938F9376
:100A600080E791E09F938F937CD10F900F900F9030
:100A70000F9080E0DF91CF911F91089587E790E07C
:100A80007BCF9C01369527953093630020936200BD
:100A9000232B21F7DBCFAADE8E819F81A6CF1F9269
:100AA0001F9386E391E09F938F935BD182E08093C5
:100AB0007F00109282001092810098DE8E819F81CB
:100AC0000F900F900F900F9090CFEF92FF920F9397
:100AD0001F93CF93DF93E82E192FF62E809182007B
:100AE0008F93809181008F93C62FD0E01F926F93D8
:100AF0002FE131E03F932F9334D10F900F900F905F
:100B00000F900F900F9080917F008130A9F028EF17
:100B100030E03F932F9325D1AE0160E070E08E2D41
:100B2000912F18D10F900F908F2DDF91CF911F91A2
:100B30000F91FF90EF9008952091810030918200F5
:100B40002C173D0778F1FF2009F1CE2DD12F0AE0B7
:100B500011E02091810030918200215031093093C1
:100B600082002093810081E0232B09F080E06EDE7B
:100B700089931F928F931F930F93F3D08C2F8E190D
:100B80000F900F900F900F908F1518F380918000A9
:100B900081FFCACF2091810030918200232B21F662
:100BA00025DEC2CF25E131E03F932F93DAD0F090DC
:100BB00081000F900F90C7CFBF92CF92DF92EF923C
:100BC000FF920F931F93CF93DF93182F092FD62EE9
:100BD000809182008F93809181008F93C62FD0E007
:100BE0001F926F9320EE30E03F932F93BAD00F9077
:100BF0000F900F900F900F900F9080917F00813099
:100C0000C1F02BEA30E03F932F93ABD0AE0160E010
:100C100070E0812F902F9ED00F900F908D2DDF913F
:100C2000CF911F910F91FF90EF90DF90CF90BF90E9
:100C3000089520918100309182002C173D0708F41F
:100C400040C0DD2009F447C0C12EC12FD02FB12CE8
:100C50000BEC10E02091810030918200215031098D
:100C600030938200209381007E0189911F928F939F
:100C70001F930F9376D0F7018081BDDD0F900F9009
:100C80000F900F90811102C0BB24B3948C2F8C194C
:100C90008D1500F38091800081FF06C08091810056
:100CA00090918200892B59F0BB2009F4B7CF8DEBCE
:100CB00090E09F938F9355D00F900F90AFCF96DD1C
:100CC000F3CF26ED30E03F932F934BD0D0908100AF
:100CD0000F900F90B6CFB12CDDCF2EE088E190E0E1
:100CE0000FB6F894A89581BD0FBE21BD539A82E03E
:100CF00089B986E690E09093B0008093AF0082E8D7
:100D000090E09F938F932DD0A498AC9AA598AD9A1C
:100D10001092820010928100BBDD85B38C7F85BB71
:100D200084B3836084BB80E49CE90197F1F784B3CA
:100D30008C7F84BB5FDA78940F900F90A89561DA6E
:100D4000FDCFFB01DC0102C005900D9241505040E7
:100D5000D8F70895DC0101C06D9341505040E0F791
:100D60000895A0E0B0E0E6EBF6E091C2FE01379610
:100D7000619171910FEA10E0D8018D919C91DC0195
:100D800013962C911397286013962C93AF0108D0DB
:100D9000D801ED91FC912381277F2383E4E093C266
:100DA000ACE0B0E0E5EDF6E064C27C016B018A01E5
:100DB000FC0117821682838181FFB0C1CE010196AA
:100DC0004C01F7019381F60193FD859193FF819189
:100DD0006F01882309F49EC1853239F493FD859112
:100DE00093FF81916F01853221F4B70190E0B1D179
:100DF000E8CF512C312C20E02032A0F48B3269F066
:100E000030F4803259F0833269F420612CC08D3285
:100E100039F0803339F4216026C02260246023C079
:100E2000286021C027FD27C030ED380F3A3078F414
:100E300026FF06C0FAE05F9E300D1124532E13C02A
:100E40008AE0389E300D1124332E20620CC08E3281
:100E500021F426FD5FC1206406C08C3611F42068A1
:100E600002C0883641F4F60193FD859193FF81918C
:100E70006F018111C1CF982F9F7D9554933028F435
:100E80000C5F1F4FFFE3F9830DC0833631F08337CA
:100E900071F0833509F057C021C0F8018081898342
:100EA0000E5F1F4F44244394512C540114C0380149
:100EB000F2E06F0E711CF801A080B18026FF03C024
:100EC000652D70E002C06FEF7FEFC5012C8736D132
:100ED0002C0183012C852F77222E16C03801F2E0D9
:100EE0006F0E711CF801A080B18026FF03C0652D34
:100EF00070E002C06FEF7FEFC5012C8714D12C0189
:100F00002C852068222E830123FC19C0832D90E0BC
:100F100048165906A0F4B70180E290E01AD13A943D
:100F2000F5CFF50127FC859127FE81915F01B7017F
:100F300090E00FD131103A94F1E04F1A510841146A
:100F4000510479F7DEC0843611F0893631F5F801A5
:100F500027FF07C060817181828193810C5F1F4FE1
:100F600008C060817181882777FD8095982F0E5F7A
:100F70001F4F2F76B22E97FF09C0909580957095E0
:100F800061957F4F8F4F9F4F2068B22E2AE030E04F
:100F9000A40111D1A82EA81843C0853729F42F7EAB
:100FA000B22E2AE030E025C0F22FF97FBF2E8F3617
:100FB000C1F018F4883579F0ADC0803719F0883762
:100FC00021F0A8C02F2F2061B22EB4FE0DC08B2DB2
:100FD0008460B82E09C024FF0AC09F2F9660B92EE6
:100FE00006C028E030E005C020E130E002C020E18A
:100FF00032E0F801B7FE07C0608171818281938180
:101000000C5F1F4F06C06081718180E090E00E5F31
:101010001F4FA401D0D0A82EA818FB2DFF77BF2EFC
:10102000B6FE0BC02B2D2E7FA51450F4B4FE0AC0C3
:10103000B2FC08C02B2D2E7E05C07A2C2B2D03C0B0
:101040007A2C01C0752C24FF0DC0FE01EA0DF11DA4
:101050008081803311F4297E09C022FF06C0739479
:10106000739404C0822F867809F0739423FD12C014
:1010700020FF06C05A2C731418F4530C5718732C05
:10108000731460F4B70180E290E02C8762D073940F
:101090002C85F6CF731410F4371801C0312C24FFBF
:1010A00011C0B70180E390E02C8753D02C8522FF3C
:1010B00016C021FF03C088E590E002C088E790E0F9
:1010C000B7010CC0822F867851F021FD02C080E26A
:1010D00001C08BE227FD8DE2B70190E03AD0A51464
:1010E00030F4B70180E390E034D05A94F8CFAA945A
:1010F000F401EA0DF11D8081B70190E02AD0A11022
:10110000F6CF332009F45DCEB70180E290E021D024
:101110003A94F7CFF7018681978102C08FEF9FEF56
:101120002C96E2E1C2C0FC010590615070400110B4
:10113000D8F7809590958E0F9F1F0895FC01615000
:10114000704001900110D8F7809590958E0F9F1FE9
:1011500008950F931F93CF93DF93182F092FEB015F
:101160008B8181FD03C08FEF9FEF20C082FF10C0F5
:101170004E815F812C813D81421753077CF4E881C9
:10118000F9819F012F5F3F4F39832883108306C069
:10119000E885F985812F0995892B29F72E813F81D3
:1011A0002F5F3F4F3F832E83812F902FDF91CF9171
:1011B0001F910F910895FA01AA27283051F120318B
:1011C00081F1E8946F936E7F6E5F7F4F8F4F9F4FDB
:1011D000AF4FB1E03ED0B4E03CD0670F781F891F1D
:1011E0009A1FA11D680F791F8A1F911DA11D6A0FEB
:1011F000711D811D911DA11D20D009F468943F919E
:101200002AE0269F11243019305D3193DEF6CF019C
:101210000895462F4770405D4193B3E00FD0C9F762
:10122000F6CF462F4F70405D4A3318F0495D31FDCF
:101230004052419302D0A9F7EACFB4E0A695979522
:10124000879577956795BA95C9F7009761057105F8
:1012500008959B01AC010A2E069457954795379542
:101260002795BA95C9F7620F731F841F951FA01D9C
:1012700008952F923F924F925F926F927F928F923A
:101280009F92AF92BF92CF92DF92EF92FF920F9315
:101290001F93CF93DF93CDB7DEB7CA1BDB0B0FB61F
:1012A000F894DEBF0FBECDBF09942A8839884888DC
:1012B0005F846E847D848C849B84AA84B984C88472
:1012C000DF80EE80FD800C811B81AA81B981CE0F69
:1012D000D11D0FB6F894DEBF0FBECDBFED0108954E
:0412E000F894FFCFB0
:1012E400FF5A05000A000000000200000000C903C4
:0A12F4000000000072640077720031
:00000001FF
