:1000000047C061C08DC05FC05EC05DC05CC05BC0EA
:100010005AC059C058C057C056C055C054C0090234
:1000200012000101008064090400000000000000CB
:1000300012011001FF000008030431C60102010291
:10004000030136036900320063002D00740069006B
:100050006E0079002D0075007300620020006F00B3
:100060006E0020006C006900740074006C00650074
:10007000570069007200650010036E006F00700089
:100080002E0063006F006D00040309040100FF8E61
:1000900011241FBECFE5D2E0DEBFCDBF10E0A0E649
:1000A000B0E0E8E2FCE002C005900D92AE36B10788
:1000B000D9F720E0AEE6B0E001C01D92A23AB20747
:1000C000E1F780D4AFC59CCFA82FB92F80E090E096
:1000D00041E050EA609530E009C02D918227979564
:1000E000879510F084279527305EC8F36F5FA8F3DB
:1000F0000895EADF8D939D930895A6E088279927B8
:10010000AA9569F00197E1F3B399FCCFB39BFECFB9
:1001100081E09927A6B3019611F0A871D9F7089547
:10012000CF93CFB7CF93C395B39BE9F7B39B0BC0E6
:10013000B39B09C0B39B07C0B39B05C0B39B03C06F
:10014000B39B01C0D3C00F92DF93C0918500DD2720
:10015000C457DF4F012EB39B03C0DF910F90E6CF52
:100160002F930F931F934F932FEF4F6F06B303FB04
:1001700020F95F933F9350E03BE065C016B3012642
:10018000502953FDC89556B3012703FB25F92F735A
:1001900006B3B1F05027102713FB26F906B2223020
:1001A000F0F000C016B3012703FB27F90126502900
:1001B00006B22430E8F54F77206816B30000F6CF7A
:1001C00050274F7D206206B2102F000000C006B3FA
:1001D00000265029102713FB26F906B2E2CF4F7BE9
:1001E00006B3206400C0DACF01265029187106B288
:1001F00069F14E7F2160012F16B328C000265029D7
:100200004D7F06B22260102F29C0012650294B7F56
:1002100006B22460012F2DC016B301265029477F56
:100220002860000006B22EC04F7E06B3206130C0A9
:10023000422706B3499300265029102706B24FEFF4
:1002400013FB20F9297F16B379F2187159F10126B1
:10025000502906B2012703FB21F9237F06B371F26F
:10026000002650293150D0F006B2102713FB22F996
:10027000277E16B351F201265029012703FB06B24F
:1002800023F92F7C49F2000006B3102713FB24F951
:100290000026502906B22F7939F270CF10E21ABF2A
:1002A000002717C03B503195C31BD04010E21ABF46
:1002B0000881033CF9F00B34E9F0209183001981A7
:1002C000110F1213EDCF093651F10D3211F0013E2D
:1002D00039F700938A003F915F914F911F910F91E1
:1002E0002F91DF910F90CAB7C5FD1DCFCF91CFBF22
:1002F000CF91189520918A00222369F310918800EC
:10030000112321F5343022F13093880020938400AA
:10031000109185003BE0311B3093850019C000919E
:10032000880001309CF40AE53091610034FD11C071
:1003300000936100C8E7D0E010C0052710E000C0BE
:1003400021C0052710E0C89508BB14C03AE501C0DC
:1003500032ED032EC0E0D0E032E017B31861C39A4B
:1003600008B317BB58E120E84FEF20FF052708BB73
:10037000279517951C3F28F700004552B0F720FF3E
:100380000527279508BB17951C3FB8F629913A9584
:1003900061F7077E10918900110F08BBC250D04051
:1003A00011F01093830010E21ABF086017B3177E94
:1003B000402F477E54E05A95F1F708BB17BB48BB66
:1003C0008ACFCF93DF9360918800635067FDB2C0FE
:1003D00080918500CCE0D0E0C81BD109C457DF4F25
:1003E000809184008D3209F094C0683009F0A0C07B
:1003F00083EC809378008AE58093610010926F000F
:100400008881807619F0CE01ECD170C08A8110927B
:1004100081009981911106C01092820021E830E09C
:1004200082E060C0953019F4809389004DC0963009
:1004300009F044C09B81913019F480E390E004C03E
:10044000923049F48EE190E090938700809386008B
:1004500090E482E130C0933061F5811109C088E8F1
:1004600090E0909387008093860090E484E023C01E
:10047000813049F488E790E090938700809386006C
:1004800090E480E118C0823049F482E490E09093D7
:1004900087008093860090E486E30DC0833049F4A2
:1004A00086E690E0909387008093860090E088E055
:1004B00002C090E480E090936F0018C0983079F00B
:1004C000993031F480938B0021E830E080E00AC05D
:1004D00081E09A3009F080E021E830E003C02BE8A9
:1004E00030E081E030938700209386008F3F39F41D
:1004F000988197FD8E8190E890936F0007C09F814F
:10050000911104C09E81981708F4892F8093600090
:100510000FC080916F0087FF0BC0CE0127D18F3FA6
:1005200021F48EE18093610003C08111109260007C
:10053000109288008091610084FF56C08091600015
:100540008F3F09F451C0C82F893008F0C8E08C1BD8
:10055000809360008091780098E8892780937800E4
:10056000CC2389F180916F0087FF08C06C2F89E749
:1005700090E0BBD0C82F893088F525C04091860017
:100580005091870086FF0BC0A9E7B0E0FA018C2FDD
:100590008A0F94919D9331968A13FBCF09C0DA019B
:1005A000E9E7F0E08C2F8E0F9D9191938E13FCCF95
:1005B0002FEF2C0F30E02F5F3F4F240F351F30936C
:1005C0008700209386006C2F89E790E092DDCC5F56
:1005D000CC3041F08FEF8093600004C08FEF8093A8
:1005E0006000CEE1C093610084E196B3987131F46C
:1005F0008150D9F71092890010928300C1E08111D7
:10060000C0E080916E008C1729F0C11101C098D113
:10061000C0936E00DF91CF910895AC9A8BB7806242
:100620008BBF0895E0916200F09163003197F1F77C
:10063000882321F0BA98B29BFECF01C0BA9A80916C
:100640006400909165000197F1F70895B8980895B6
:10065000B89A81E0E7DFFACF0F931F93CF93DF9330
:10066000C7E0D0E0082F10E0C8010C2E02C095951D
:1006700087950A94E2F780FF02C0E8DF01C0B89ACC
:1006800081E0D0DF80E0CEDF219770F7DFDF81E00F
:10069000C9DFC6B380E0C6DF8C2F80958170DF9103
:1006A000CF911F910F9108951F93CF93DF93182F30
:1006B000CDDF80E0B7DFD8E0C0E081E0B3DFCC0F72
:1006C000B099C16080E0AEDFD150B9F7112311F0CD
:1006D000BDDF01C0B89A81E0A5DF80E0A3DFB6DF0F
:1006E0008C2FDF91CF911F9108950F931F93CF937C
:1006F000DF93082F162F80917400462F50E0813031
:1007000059F520917600309177002417350708F4C9
:10071000122F802FEC018C2F801B811788F42091E1
:100720007600309177002150310930937700209383
:10073000760081E0232B09F080E0B6DF8993EBCFD0
:100740008091750081FF0CC0209176003091770078
:10075000232B31F47DDF04C060E070E0802F45D2B0
:10076000812FDF91CF911F910F9108950F931F93C8
:10077000CF93DF93162F20917400462F50E0213045
:1007800039F520917600309177002417350708F469
:10079000122F082FEC018C2F801B811768F42091F9
:1007A0007600309177002150310930937700209303
:1007B0007600899151DFEFCF8091750081FF0BC0EA
:1007C0002091760030917700232B29F441DF03C07C
:1007D00060E070E00AD2812FDF91CF911F910F91DD
:1007E00008958F929F92AF92BF92CF92DF92EF9235
:1007F000FF921F93CF93DF93EC0180E790E09093FB
:1008000087008093860089818230E9F070F4882324
:1008100091F0813009F087C044E050E06CE870E06E
:1008200080E790E0D9D184E07FC0833009F475C0BF
:100830008830F0F178C08A81809370008B8180933A
:10084000710082E071C06A817B8180E090E022E7E4
:1008500036E040E050E040D149015A01C501B40101
:10086000685A7D4F8F4F9F4F20EB34E040E050E0BF
:100870000FD12830310538F481E090E09093650085
:100880008093640006C0275031093093650020939F
:10089000640080916400909165009695879500971B
:1008A00011F481E090E090936300809362003BC07C
:1008B000C19A1C81110F8A8180FD1160898180FDA0
:1008C00003C0C4DE81E0AEDEB89A80E0ABDE812FEB
:1008D000C3DE811108C082E080937400109277001B
:1008E0001092760010C081E0809374008E819F8109
:1008F000909377008093760029812093750021FFE3
:1009000003C0892B09F4A4DEC19881E02E813F81C8
:10091000232B09F480E0819507C0809174008093B7
:10092000700081E001C080E0DF91CF911F91FF90C6
:10093000EF90DF90CF90BF90AF909F908F900895F1
:10094000DF92EF92FF920F931F93CF93DF93C8E054
:10095000D0E0F12C30E8E32EDE2CDF0CD1BECDDB75
:100960008C01043389E018070CF4FD2CE6942197E0
:10097000209791F78FEF8F0D81BFCF2DD0E021967B
:1009800081B790E0C817D9078CF0B7DB8453994042
:1009900097FF03C09195819591098017910714F4F1
:1009A000F1B68C0181B78F5F81BFEACFF1BE61B72D
:1009B00080E090E0DF91CF911F910F91FF90EF9039
:1009C000DF9022C180E090E017D18F3F09F081BF16
:1009D00080E290E011D1D82F81E290E00DD1C82FB4
:1009E00082E290E009D1D053DA3008F044C0C0531D
:1009F000CA3008F040C080538A3008F03CC080E222
:100A000090E0FAD090E0909369008093680081E2D2
:100A100090E0F2D090E090936B0080936A0082E2C5
:100A200090E0EAD090E090936D0080936C00B898CD
:100A3000C098BA98C2981092770010927600BB9A2C
:100A400084E1E2EBF1EF3197F1F700C00000815053
:100A5000C1F7BB982EE088E190E00FB6F894A89516
:100A600081BD0FBE21BDD9DD7894B99ABD98C598D6
:100A7000A895A7DCFDCF61E380E290E0C5D061E3FB
:100A800081E290E0C1D063E382E290E0BDD0B7CFD5
:100A9000A1E21A2EAA1BBB1BFD010DC0AA1FBB1F82
:100AA000EE1FFF1FA217B307E407F50720F0A21BF4
:100AB000B30BE40BF50B661F771F881F991F1A9461
:100AC00069F760957095809590959B01AC01BD018B
:100AD000CF01089568940013E894A0E0B0E0E2E745
:100AE000F5E01DC0EFEFE7F959016A015E23550FEC
:100AF000EE08FE2C87019B01AC019E23990F660B2B
:100B0000762FCB013BD0CDB7DEB7EAE024C02F92E1
:100B10003F924F925F926F927F928F929F92AF928D
:100B2000BF92CF92DF92EF92FF920F931F93CF93DA
:100B3000DF93CDB7DEB7CA1BDB0B0FB6F894DEBF71
:100B40000FBECDBF09942A88398848885F846E8497
:100B50007D848C849B84AA84B984C884DF80EE80E1
:100B6000FD800C811B81AA81B981CE0FD11D0FB6EA
:100B7000F894DEBF0FBECDBFED010895DF93CF9394
:100B80009F92A0E49A2E0024D001E001F001169576
:100B90000795F794E794D794C794B794A79448F42B
:100BA0001068A20FB31FC41FD51FE61FF71F081E32
:100BB000191E220F331F441F551F661F771F881FE2
:100BC000991F9A9421F79D01AE01BF01C001112424
:100BD0009F90CF91DF910895FB01DC0102C0059049
:100BE0000D9241505040D8F70895DC0101C06D933B
:100BF00041505040E0F70895E199FECF9FBB8EBB76
:100C0000E09A99278DB30895262FE199FECF1CBA5B
:100C10009FBB8EBB2DBB0FB6F894E29AE19A0FBE34
:080C200001960895F894FFCF3E
:0E0C2800FF5A030006000803350031003200B9
:00000001FF
